:020000040000FA
:100000000C945D000C9485000C9485000C94850084
:100010000C9485000C9485000C9485000C9485004C
:100020000C9485000C9485000C9485000C94CE04EF
:100030000C9485000C9485000C9485000C9485002C
:100040000C9484040C9485000C9452040C942C049D
:100050000C9485000C9485000C9485000C9485000C
:100060000C9485000C94850000000008000201003B
:100070000003040700000000000000000000000072
:10008000250028002B0000000000240027002A0083
:10009000040404040404040402020202020203032E
:1000A0000303030301020408102040800102040836
:1000B00010200102040810208A0511241FBECFEF72
:1000C000D8E0DEBFCDBF11E0A0E0B1E0EEE3F0E1AB
:1000D00002C005900D92A636B107D9F722E0A6E638
:1000E000B1E001C01D92A135B207E1F710E0CDE506
:1000F000D0E004C02197FE010E941708CC35D1073B
:10010000C9F70E9414060C941D080C94000090E09E
:10011000FC01EC55FF4F249180579F4FFC018491C7
:10012000882399F090E0880F991FFC01EA57FF4F50
:10013000A591B491FC01E458FF4F859194918FB73C
:10014000F894EC91E22BEC938FBF0895CF92DF925D
:10015000EF92FF92DC01A03282E0B807D4F5A53B14
:10016000B10514F0A4EBB0E04091370228E830E08C
:10017000241B310947FD3395220F331F220F331FF4
:100180006901330FEE08FF084091380228E532E09C
:10019000241B310947FD3395220F331F220F331FD4
:1001A000032E000C440B550B2C193D094E095F0919
:1001B000B7FF02C0B0E0A0E00E94D20724EB30E01D
:1001C00040E050E00E94A807C20ED31EE41EF51EB8
:1001D000D601E0913602EC3080F52091370288E8B4
:1001E00090E0821B910927FD9395880F991F880F36
:1001F000991FA817B90784F02091380288E592E08A
:10020000821B910927FD9395880F991F880F991FCD
:10021000A817B9070CF4CD010297880F991F4FB7A3
:10022000F8942E2F30E0F901EE0FFF1FE20FF31FBD
:10023000EF5EFD4F928381834FBFFF90EF90DF9081
:10024000CF900895AF92BF92CF92DF92EF92FF923C
:100250000F931F93CF93DF936C017B018B01040FEE
:10026000151FEB015E01AE18BF08C017D10759F08A
:100270006991D601ED91FC910190F081E02DC601CC
:100280000995892B79F7C501DF91CF911F910F91C6
:10029000FF90EF90DF90CF90BF90AF900895FC015A
:1002A000538D448D252F30E0842F90E0821B930BDB
:1002B000541710F0CF96089501970895FC01918D81
:1002C000828D981761F0A28DAE0FBF2FB11D5D9684
:1002D0008C91928D9F5F9F73928F90E008958FEF26
:1002E0009FEF0895FC01918D828D981731F0828DDA
:1002F000E80FF11D858D90E008958FEF9FEF089531
:10030000FC01918D228D892F90E0805C9F4F821B94
:1003100091098F739927089584E791E00E948001E5
:1003200021E0892B09F420E0822F089580E090E0FD
:10033000892B29F00E948C0181110C9400000895F2
:10034000FC01A48DA80FB92FB11DA35ABF4F2C914A
:10035000848D90E001968F739927848FA689B78941
:100360002C93A089B1898C91837080648C93938D38
:10037000848D981306C00288F389E02D80818F7DDB
:1003800080830895EF92FF920F931F93CF93DF9393
:10039000EC0181E0888F9B8D8C8D98131AC0E889C1
:1003A000F989808185FF15C09FB7F894EE89FF8990
:1003B0006083E889F98980818370806480839FBF2E
:1003C00081E090E0DF91CF911F910F91FF90EF902E
:1003D0000895F62E0B8D10E00F5F1F4F0F7311273E
:1003E000E02E8C8D8E110CC00FB607FCFACFE88979
:1003F000F989808185FFF5CFCE010E94A001F1CF60
:10040000EB8DEC0FFD2FF11DE35AFF4FF0829FB7EC
:10041000F8940B8FEA89FB8980818062CFCFCF93DC
:10042000DF93EC01888D8823B9F0AA89BB89E8891C
:10043000F9898C9185FD03C0808186FD0DC00FB6C2
:1004400007FCF7CF8C9185FFF2CF808185FFEDCF40
:10045000CE010E94A001E9CFDF91CF91089590E0F5
:10046000FC01E859FF4F2491FC01EC55FF4F3491FA
:10047000FC01E057FF4FE491EE23C9F0222339F04D
:10048000233001F1A8F4213019F1223029F1F0E0F4
:10049000EE0FFF1FE458FF4FA591B4918FB7F8946A
:1004A000EC91611126C030953E233C938FBF089597
:1004B0002730A9F02830C9F0243049F78091800016
:1004C0008F7D03C0809180008F7780938000DFCF85
:1004D00084B58F7784BDDBCF84B58F7DFBCF8091D2
:1004E000B0008F778093B000D2CF8091B0008F7D25
:1004F000F9CF3E2BDACF8E50806480937C008091C0
:100500007A00806480937A0080917A0086FDFCCF27
:10051000809178009091790008953FB7F894809188
:100520006C0190916D01A0916E01B0916F0126B5A3
:10053000A89B05C02F3F19F00196A11DB11D3FBF1B
:10054000BA2FA92F982F8827BC01CD01620F711DEA
:10055000811D911D42E0660F771F881F991F4A95E4
:10056000D1F708958F929F92AF92BF92CF92DF9270
:10057000EF92FF924B015C010E948D026B017C01A6
:100580000E948D026C197D098E099F09683E734097
:1005900081059105A8F321E0821A9108A108B1080C
:1005A00088EEC80E83E0D81EE11CF11C8114910472
:1005B000A104B10429F7FF90EF90DF90CF90BF9096
:1005C000AF909F908F900895089590E080E00895F7
:1005D000CF93DF93EC0160E08E810E942F0261E0F7
:1005E0008E810E942F0260E08E810E942F028BE894
:1005F00091E00197F1F7DF91CF910895CF92DF92CB
:10060000EF92FF920F931F93CF93DF936C017C01C6
:1006100087E0E80EF11CD0E0C0E0062F10E0B80142
:100620000C2E02C0759567950A94E2F76170F70188
:1006300081917F010E942F022196C430D10579F764
:10064000C601DF91CF911F910F91FF90EF90DF9046
:10065000CF900C94E802CF92DF92EF92FF920F932B
:100660001F93CF93DF93EC01F62E642F8C810E94B1
:100670002F028D818F3F19F060E00E942F020F2D15
:1006800010E08F8584FF25C06E0187E0C80ED11C65
:10069000F12CE12CB8010E2C02C0759567950A94D7
:1006A000E2F76170F60181916F010E942F02FFEF66
:1006B000EF1AFF0A88E0E816F10461F7CE01DF9136
:1006C000CF911F910F91FF90EF90DF90CF900C94FE
:1006D000E802B80184E0759567958A95E1F7CE0147
:1006E0000E94FE026F2DCE01DF91CF911F910F91DD
:1006F000FF90EF90DF90CF900C94FE0240E0682FC7
:1007000089E392E00C942B03CF93DF93823029F49A
:100710009091480298609093480280934C02109206
:100720004D0280E480934E0280E180934F0280E589
:100730008093500280913D020E94870080913E028A
:100740008F3F11F00E94870080913F020E94870036
:10075000C9E3D2E09E01295332408091480284FDD2
:100760000AC084E090E02196281739073CF48E8176
:100770000E948700EFCF88E090E0F5CF8BE39DE00B
:100780000197F1F760E080913D020E942F0260E046
:1007900080913F020E942F0280913E028F3F19F00C
:1007A00060E00E942F028091480284FD39C063E01E
:1007B00089E392E00E94FE02CBE4D6E4CE010197E9
:1007C000F1F763E089E392E00E94FE022197F1F7DE
:1007D00063E089E392E00E94FE0283E592E00197E4
:1007E000F1F762E089E392E00E94FE028091480204
:1007F00080620E947E0384E0809349028CE00E9424
:100800007E0381E00E947E038BE39FE10197F1F775
:1008100082E080934A0286E0DF91CF910C947E03C0
:1008200080620E947E038BE496E40197F1F7809149
:10083000480280620E947E0383E592E00197F1F70F
:100840008091480280620E947E03D0CF41E00E94E6
:100850002B0381E090E008951F920F920FB60F9244
:1008600011242F933F934F935F936F937F938F93B5
:100870009F93AF93BF93EF93FF9384E791E00E9420
:10088000A001FF91EF91BF91AF919F918F917F91C7
:100890006F915F914F913F912F910F900FBE0F90ED
:1008A0001F9018951F920F920FB60F9211242F933D
:1008B0008F939F93EF93FF93E0918401F0918501D3
:1008C0008081E0918A01F0918B0182FD1BC09081B3
:1008D00080918D018F5F8F7320918E01821741F07F
:1008E000E0918D01F0E0EC58FE4F958F80938D01E3
:1008F000FF91EF919F918F912F910F900FBE0F90CD
:100900001F9018958081F4CF1F920F920FB60F920F
:1009100011242F933F938F939F93AF93BF93809115
:10092000680190916901A0916A01B0916B013091C9
:10093000670123E0230F2D3758F50196A11DB11D46
:10094000209367018093680190936901A0936A01E5
:10095000B0936B0180916C0190916D01A0916E013B
:10096000B0916F010196A11DB11D80936C01909310
:100970006D01A0936E01B0936F01BF91AF919F91F4
:100980008F913F912F910F900FBE0F901F90189550
:1009900026E8230F0296A11DB11DD2CF1F920F9200
:1009A0000FB60F9211242F933F934F935F936F9342
:1009B0007F938F939F93AF93BF93CF93DF93EF93E7
:1009C000FF9380916601C0913502D0E087FF24C07B
:1009D0001092850010928400809166018F5F809351
:1009E000660180916601082E000C990B8C179D07FB
:1009F00024F4809166018C30C4F180918400909140
:100A00008500049680349C4908F47AC08091840063
:100A100090918500049676C080916601082E000CA6
:100A2000990B8C179D07C4F6E09166018E2FEE0F8F
:100A3000990BFC01EE0FFF1FE80FF91FEF5EFD4F52
:100A4000808186FFC9CFE09166018E2FEE0F990B52
:100A5000FC01EE0FFF1FE80FF91FEF5EFD4F8081D5
:100A600060E08F730E942F02B7CF209184003091F5
:100A70008500E09166018E2FEE0F990BFC01EE0FC1
:100A8000FF1FE80FF91FEF5EFD4F81819281820FFA
:100A9000931F9093890080938800E09166018E2FC8
:100AA000EE0F990BFC01EE0FFF1FE80FF91FEF5E31
:100AB000FD4F808186FF11C0E09166018E2FEE0F01
:100AC000990BFC01EE0FFF1FE80FF91FEF5EFD4FC2
:100AD000808161E08F730E942F02FF91EF91DF917F
:100AE000CF91BF91AF919F918F917F916F915F91C6
:100AF0004F913F912F910F900FBE0F901F9018951F
:100B000080E49CE990938900809388008FEF809324
:100B10006601E3CFCF93109277011092760188EEB1
:100B200093E0A0E0B0E08093780190937901A093E6
:100B30007A01B0937B0184E091E0909375018093FA
:100B4000740185EC90E0909381018093800184ECA6
:100B500090E0909383018093820180EC90E09093E9
:100B600085018093840181EC90E0909387018093CC
:100B7000860182EC90E0909389018093880186EC55
:100B800090E090938B0180938A0110928D011092D6
:100B90008E0110928F011092900110923C021092DF
:100BA0003B0286E191E090933A02809339028DE016
:100BB00080933D02CFEFC0933E028CE080933F02D2
:100BC0008BE0809340028AE08093410289E0809329
:100BD000420288E080934302109244021092450240
:100BE00010924602109247021092480281E00E9441
:100BF0008403809135028C30A0F491E0980F90939B
:100C000035028093360290E0FC01EE0FFF1FE80FE3
:100C1000F91FEF5EFD4F88EB9BE092838183CF91BC
:100C20000895C0933602FBCF789484B5826084BD6A
:100C300084B5816084BD85B5826085BD85B58160E0
:100C400085BD80916E00816080936E00109281005E
:100C50008091810082608093810080918100816019
:100C600080938100809180008160809380008091DA
:100C7000B10084608093B1008091B0008160809366
:100C8000B00080917A00846080937A0080917A002D
:100C9000826080937A0080917A00816080937A00EC
:100CA00080917A00806880937A001092C10086E07B
:100CB0000E94870085E00E94870060E086E00E9435
:100CC0002F0261E085E00E942F0282E00E948403EF
:100CD000809136028C3008F050C087E00E94870077
:100CE00080913602282F30E0F901EE0FFF1FE20F4E
:100CF000F31FEF5EFD4F9081907C97609083109280
:100D00003702109238022CE0622F0E940B08829F5B
:100D1000B001112430E020E0AB01420F531FFA0173
:100D2000EE0FFF1FE40FF51FEF5EFD4F908196FD64
:100D300016C02F5F3F4F2C30310571F781110FC066
:100D40001092800082E080938100109285001092C2
:100D50008400B19A80916F00826080936F00E0916F
:100D600036028E2F90E0FC01EE0FFF1FE80FF91FF7
:100D7000EF5EFD4F8081806480838091700190914F
:100D800071010E94A600E0918401F091850182E04A
:100D90008083E0918001F09181011082E0918201D5
:100DA000F09183018FEC808310928C01E091880197
:100DB000F091890186E08083E0918601F0918701BE
:100DC000808180618083E0918601F091870180813C
:100DD00088608083E0918601F0918701808180683E
:100DE0008083E0918601F091870180818F7D8083EF
:100DF0000BE31FE1C0E0D0E082E10E947B027C01B6
:100E0000909373018093720183E10E947B02E81A40
:100E1000F90AF7FE03C0F194E194F10889ECE816B1
:100E2000F1040CF477C061E086E00E942F0260E0DC
:100E300085E00E942F0281E00E947E03C801019795
:100E4000F1F76CE271E080E090E00E94B202E1E034
:100E500080914C028111E0E0E195F0E0E75CFD4F0C
:100E6000848980680E947E034EE050E06EE171E06C
:100E700089E392E00E9422018091700190917101BA
:100E8000843B9105BCF41092710110927001E090C6
:100E90007001F090710185EBE816F1045CF4C70174
:100EA0000E94A6008FEFE81AF80AF0927101E09212
:100EB0007001EDCF41E150E06DE271E084E791E037
:100EC0000E9422016DE084E791E00E94C20145E1A9
:100ED00050E06FE371E084E791E00E9422016DE051
:100EE00084E791E00E94C2016DE084E791E00E94F6
:100EF000C20168EE73E080E090E00E94B2022097A9
:100F000009F47ACF0E948C01882309F475CF0E94DE
:100F1000000072CF60E086E00E942F0261E085E071
:100F20000E942F02E1E080914C028111E0E0E19506
:100F3000F0E0E75CFD4F848980680E947E0340E119
:100F400050E065E571E089E392E00E942201D7CF8D
:100F5000052E97FB1EF400940E94BF0757FD07D093
:100F60000E94DA0707FC03D04EF40C94BF0750959B
:100F70004095309521953F4F4F4F5F4F0895909585
:100F80008095709561957F4F8F4F9F4F08950E9478
:100F9000FC07A59F900DB49F900DA49F800D911DFF
:100FA00011240895B7FF0C94C7070E94C707821B3E
:100FB000930B0895A1E21A2EAA1BBB1BFD010DC0C5
:100FC000AA1FBB1FEE1FFF1FA217B307E407F507F9
:100FD00020F0A21BB30BE40BF50B661F771F881FD5
:100FE000991F1A9469F760957095809590959B016B
:100FF000AC01BD01CF010895A29FB001B39FC00114
:10100000A39F700D811D1124911DB29F700D811D34
:101010001124911D0895991B79E004C0991F96171A
:1010200008F0961B881F7A95C9F780950895EE0FF2
:10103000FF1F0590F491E02D0994F894FFCF000074
:101040000000C20122014F010F0280015E01720106
:101050000000000026042201E502E40245617271ED
:1010600075616B6520616C6572740045415254482E
:101070005155414B4520414C455254210054414B60
:101080004520534146455459204D454153555245FD
:101090005321004861766520612067726561742084
:0410A000646179000E
:107E0000112484B714BE81FFF0D085E080938100F7
:107E100082E08093C00088E18093C10086E0809377
:107E2000C20080E18093C4008EE0C9D0259A86E02C
:107E300020E33CEF91E0309385002093840096BBD3
:107E4000B09BFECF1D9AA8958150A9F7CC24DD24C4
:107E500088248394B5E0AB2EA1E19A2EF3E0BF2EE7
:107E6000A2D0813461F49FD0082FAFD0023811F036
:107E7000013811F484E001C083E08DD089C08234E0
:107E800011F484E103C0853419F485E0A6D080C0E4
:107E9000853579F488D0E82EFF2485D0082F10E0AE
:107EA000102F00270E291F29000F111F8ED06801E7
:107EB0006FC0863521F484E090D080E0DECF843638
:107EC00009F040C070D06FD0082F6DD080E0C81688
:107ED00080E7D80618F4F601B7BEE895C0E0D1E017
:107EE00062D089930C17E1F7F0E0CF16F0E7DF06D8
:107EF00018F0F601B7BEE89568D007B600FCFDCFD4
:107F0000A601A0E0B1E02C9130E011968C91119780
:107F100090E0982F8827822B932B1296FA010C0160
:107F200087BEE89511244E5F5F4FF1E0A038BF0790
:107F300051F7F601A7BEE89507B600FCFDCF97BE46
:107F4000E89526C08437B1F42ED02DD0F82E2BD052
:107F50003CD0F601EF2C8F010F5F1F4F84911BD097
:107F6000EA94F801C1F70894C11CD11CFA94CF0C13
:107F7000D11C0EC0853739F428D08EE10CD085E9AC
:107F80000AD08FE07ACF813511F488E018D01DD067
:107F900080E101D065CF982F8091C00085FFFCCF94
:107FA0009093C60008958091C00087FFFCCF809118
:107FB000C00084FD01C0A8958091C6000895E0E648
:107FC000F0E098E1908380830895EDDF803219F02E
:107FD00088E0F5DFFFCF84E1DECF1F93182FE3DFCA
:107FE0001150E9F7F2DF1F91089580E0E8DFEE27F6
:047FF000FF270994CA
:027FFE00040479
:00000001FF
